{
  "contractName": "Ownable",
  "abi": [
    {
      "inputs": [],
      "payable": false,
      "stateMutability": "nonpayable",
      "type": "constructor"
    },
    {
      "constant": true,
      "inputs": [],
      "name": "owner",
      "outputs": [
        {
          "internalType": "address",
          "name": "",
          "type": "address"
        }
      ],
      "payable": false,
      "stateMutability": "view",
      "type": "function"
    }
  ],
  "bytecode": "0x608060405234801561001057600080fd5b50336000806101000a81548173ffffffffffffffffffffffffffffffffffffffff021916908373ffffffffffffffffffffffffffffffffffffffff16021790555060cf8061005f6000396000f3fe6080604052348015600f57600080fd5b506004361060285760003560e01c80638da5cb5b14602d575b600080fd5b60336075565b604051808273ffffffffffffffffffffffffffffffffffffffff1673ffffffffffffffffffffffffffffffffffffffff16815260200191505060405180910390f35b6000809054906101000a900473ffffffffffffffffffffffffffffffffffffffff168156fea265627a7a7231582022908f7b6c7af332bb528b4c82ab754eed88cab248b89ca75d2038d85cc5fd5c64736f6c634300050c0032",
  "source": "pragma solidity 0.5.12;\r\n\r\ncontract Ownable{\r\n  address public owner;\r\n\r\n  modifier onlyOwner(){\r\n      require(msg.sender == owner);\r\n      _; //Continue execution\r\n  }\r\n\r\n  constructor() public{\r\n      owner = msg.sender;\r\n  }\r\n}\r\n",
  "sourcePath": "C:\\Users\\tkrei\\OneDrive\\Ivan_On_Tech\\Solidity201\\People-Dapp\\contracts\\Ownable.sol",
  "compiler": {
    "name": "solc",
    "version": "0.5.12+commit.7709ece9.Emscripten.clang"
  },
  "schemaVersion": "3.2.0",
  "updatedAt": "2020-10-14T00:01:19.413Z",
  "devdoc": {
    "methods": {}
  },
  "userdoc": {
    "methods": {}
  }
}